:020000040040BA
:1000000058294020F9104000A9114000A9114000D2
:10001000A9114000A9114000A911400000000000F2
:10002000000000000000000000000000A9114000D6
:10003000A911400000000000A9114000A9114000D2
:10004000A9114000A9114000DD184000A91140008D
:10005000A9114000A9114000A9114000A9114000B8
:10006000A91140000000000029084000410840009C
:1000700059084000A9114000A9114000A9114000F1
:100080007108400089084000A9114000A9114000F2
:10009000A9114000A9114000A9114000E11640003B
:1000A000A9114000A9114000A9114000A911400068
:1000B000A9114000A9114000A9114000A911400058
:1000C000A9114000A9114000A9114000A911400048
:1000D00000000000A911400000000000A91140002C
:1000E000A9114000A9114000A9114000A911400028
:1000F000A9114000A9114000A9114000A911400018
:10010000A9114000A9114000A9114000A911400007
:10011000A9114000000000000000000000000000E5
:10012000A9114000A9114000A9114000A9114000E7
:10013000A911400000000000A9114000A9114000D1
:1001400010B5054C237833B9044B13B10448AFF311
:1001500000800123237010BD4C08402000000000E7
:10016000E82340000C4B43B10C480D4910B5AFF3E8
:1001700000800C48036823B910BD0A48036833B9EE
:100180007047094B002BF7D0BDE810401847064BCD
:10019000002BF5D0184700BF00000000E823400006
:1001A00050084020E82340000000000080B582B0E5
:1001B00000AF78607B68072B31D801A252F823F09A
:1001C0001D024000E1014000E9014000F101400052
:1001D000F901400001024000090240001302400002
:1001E0000020114B98471AE001200F4B984716E06A
:1001F00000200E4B984712E010200C4B98470EE061
:1002000020200A4B98470AE03E210020084B9847DF
:1002100005E03E210120064B984700E000BF00BFEB
:100220000837BD4680BD00BFA10940000D0A40004F
:100230007D0A400080B582B000AF78607B68072BF4
:1002400026D801A252F823F0690240006D02400056
:100250006D0240007F0240007F0240007F024000AC
:100260007F0240007F024000012312E00B4B9847C1
:100270000346002B14BF01230023DBB209E0084B27
:1002800098470346002B14BF01230023DBB200E094
:10029000002318460837BD4680BD00BFD90940007D
:1002A000F50A400080B483B000AF78607B68072B0C
:1002B00025D801A252F823F0D9024000DF02400005
:1002C000E5024000EB024000EF024000F302400074
:1002D000F7024000FB0240004FF4FA4310E04FF4F5
:1002E00000430DE04FF400430AE0084B08E0084BE0
:1002F00006E0084B04E0074B02E0064B00E0002359
:1003000018460C37BD465DF8047B704700093D0078
:1003100000127A00001BB70080B582B000AF034620
:10032000FB7100BFFB791846054B9847034683F0E5
:100330000103DBB2002BF5D100BF0837BD4680BDFD
:100340003502400080B586B000AFF8607A603B604F
:100350000B46FB727B68002B07D13B68002B04D156
:10036000FB684FF470021A6019E0FB7A18460E4BD6
:10037000984702467B68B2FBF3F37B617B693A687E
:1003800002FB03F37B613B68013B1A04074B1340FC
:100390007A68D2B2134343F47C52FB681A6000BF00
:1003A0001837BD4680BD00BFA50240000000FF0712
:1003B00080B582B000AF786039603B68002B08D10F
:1003C000094B9847094A7B681B6843F000539362C6
:1003D00005E0064A7B681B6843F48033D36100BFA5
:1003E0000837BD4680BD00BF110B400000060E401F
:1003F00080B582B000AF78607B68002B03D1054BDD
:100400009847034602E0044B9847034618460837CE
:10041000BD4680BD2D0B4000490B400080B582B029
:1004200000AF0346FB71FB79033B042B08D8FB7933
:100430001846064B9847FB791846054B984700E04D
:1004400000BF00BF0837BD4680BD00BFAD01400002
:100450001903400080B582B000AF786000BF7868B3
:10046000044B98470346002BF9D000231846083761
:10047000BD4680BDF103400080B500AF0620054BAE
:100480009847024613469B0013449A0013441846AB
:1004900080BD00BFA502400080B500AF024B984769
:1004A00003469B09184680BD7904400090B583B08F
:1004B00000AF1348134B98470620134B9847381D3D
:1004C000192301220621114CA0473B1D002118468B
:1004D0000F4B984700200F4B984702200E4B984730
:1004E00060200E4B98470E4B98470E4B984703469B
:1004F0001846044B984700BF0C37BD4690BD00BF5F
:1005000000A3E111191340001D0440004503400001
:10051000B103400055044000A10840001D094000FF
:10052000B11140009904400080B485B000AFF8607C
:10053000B9607A607B68002B03D0FB68BA685A66A2
:1005400002E0FB68BA681A6600BF1437BD465DF862
:10055000047B704780B483B000AF786039607B68FB
:100560003A681A6300BF0C37BD465DF8047B7047DC
:1005700080B483B000AF786039607B683A685A63B2
:1005800000BF0C37BD465DF8047B704780B487B070
:1005900000AFF860B9607A60FB687A685A64BB683B
:1005A000B3F1C05F4AD0B3F1C05F08D8B3F1006FB8
:1005B00016D0B3F1805F2CD0002B69D064E0B3F18A
:1005C000205F65D0B3F1205F03D8B3F1005F4AD05C
:1005D0005AE0B3F1405F5BD0B3F1605F58D053E0B5
:1005E000FB681B6F7B61FB681A6F7B68D9437B6973
:1005F0000B401A40FB681A67FB685B6F7B61FB6806
:100600005A6F7B68D9437B690B401A40FB685A6775
:100610003AE0FB681B6F7B617A687B691A43FB6871
:100620001A67FB685B6F7B61FB685A6F7B68D94315
:100630007B690B401A40FB685A6725E0FB681B6F1B
:100640007B61FB681A6F7B68D9437B690B401A405A
:10065000FB681A67FB685B6F7B617A687B691A438A
:10066000FB685A6710E0FB681B6F7B617A687B69E7
:100670001A43FB681A67FB685B6F7B617A687B696A
:100680001A43FB685A6700BFFB687A685A6000E04B
:1006900000BF1C37BD465DF8047B704780B584B051
:1006A00000AFF860B9607A603B60B968F868124BD7
:1006B0009847BA69B968F868104B98473B68002BAF
:1006C00003D0FB68BA681A6502E0FB68BA685A652D
:1006D0007B68002B03D0FB68BA681A6302E0FB68F2
:1006E000BA685A63FB68BA681A61FB68BA681A602C
:1006F00000BF1037BD4680BD2907400029054000D6
:1007000080B483B000AF786039607B689A6B3B68D7
:100710001340002B01D1002300E0012318460C37C1
:10072000BD465DF8047B704780B483B000AF78604D
:1007300039607B683A685A6400BF0C37BD465DF883
:10074000047B704780B483B000AF78607B68DB6C5B
:1007500018460C37BD465DF8047B704780B483B003
:1007600000AF78607B689B6C18460C37BD465DF81F
:10077000047B704780B584B000AF786039607868DA
:10078000264B9847F8607868254B98470246FB68E7
:100790001340FB60FB68002B3CD00023BB6034E0BF
:1007A000204ABB681B0113441A683B689A4226D151
:1007B0001C4ABB681B01134404331A68FB681340CE
:1007C000002B1CD0174ABB681B0113440C331B6859
:1007D0001449BA6812010A4410681249BA68120131
:1007E0000A4404321268114698470E4ABB681B013E
:1007F000134404331B68DB43FA681340FB60BB6897
:100800000133BB60BB68062B03D8FB68002BC7D144
:1008100000E000BF00BF1037BD4680BD4507400067
:100820005D0740006808402080B500AF0A210248FB
:10083000024B984700BF80BD000E0E407507400078
:1008400080B500AF0B210248024B984700BF80BD26
:1008500000100E407507400080B500AF0C21024823
:10086000024B984700BF80BD00120E407507400044
:1008700080B500AF10210248024B984700BF80BDF1
:1008800000140E407507400080B500AF11210248EA
:10089000024B984700BF80BD00160E407507400010
:1008A00080B483B000AF78607B68013B032B1AD81B
:1008B00001A252F823F000BFC9084000CF08400051
:1008C000D7084000DF08400000237B600EE04FF4B3
:1008D00080737B600AE04FF440737B6006E04FF466
:1008E00000737B6002E000237B6000BF0A490A4B73
:1008F0001B6B23F440727B6813430B6300BF064BF2
:100900009B6E03F00803002BF9D000BF0C37BD46E7
:100910005DF8047B704700BF00060E4080B485B0D0
:1009200000AF78601D491D4B1B6B23F070027B6884
:1009300013430B634FF48053FB6007E0FB68002B0D
:1009400001D1012323E0FB68013BFB60134B9B6E4D
:1009500003F00803002BF1D0104A104B1B6B23F05F
:10096000030343F0020313634FF48053FB6007E07B
:10097000FB68002B01D1012309E0FB68013BFB6010
:10098000064B9B6E03F00803002BF1D000231846A2
:100990001437BD465DF8047B704700BF00060E406B
:1009A00080B483B000AF78607B68012B05D1074924
:1009B000064B9A68064B13438B60044B054A1A603A
:1009C00000BF0C37BD465DF8047B704710180E4021
:1009D000000010A5080000A580B400AF094B5B69BA
:1009E00003F08003002B07D0074B9B6E03F08003BE
:1009F000002B01D0012300E000231846BD465DF81E
:100A0000047B704710180E4000060E4080B483B07F
:100A100000AF78601549154B1A6A154B13430B62EA
:100A200000BF124B9B6E03F40033002BF9D00F492B
:100A30000E4B1A6A0F4B13407A68134343F45C134E
:100A40000B6200BF094B9B6E03F40033002BF9D0FF
:100A50000649064B1A6A084B134043F45C130B62B9
:100A600000BF0C37BD465DF8047B704700060E40A2
:100A7000080037008FFFC8FFFFFFC8FE80B483B0B7
:100A800000AF786039607B68002B08D01349134BA6
:100A90001B6A134A1A40134B13430B6218E00F49A9
:100AA0000E4B1A6A104B13403A68120292B21A4364
:100AB0000E4B13430B6200BF084B9B6E03F0010308
:100AC000002BF9D00549054B1A6A094B13430B62F9
:100AD00000BF0C37BD465DF8047B704700060E4032
:100AE000FCFFC8FE02003701FCFFC8FF0100370011
:100AF0000000370180B400AF044B9B6E03F48033D9
:100B00001846BD465DF8047B704700BF00060E40E6
:100B100080B400AF044B4FF000529A6200BFBD4654
:100B20005DF8047B704700BF00060E4080B400AF44
:100B3000044B9B6E03F002031846BD465DF8047B30
:100B4000704700BF00060E4080B400AF044B9B6EA0
:100B500003F040031846BD465DF8047B704700BFB4
:100B600000060E4080B483B000AF78607B683F2BF6
:100B700001D901232FE07B681F2B13D8194B9A69E9
:100B800001217B6801FA03F31A4001217B6801FA15
:100B900003F39A421ED0134A01217B6801FA03F342
:100BA000136117E07B68203B7B600E4BD3F8082174
:100BB00001217B6801FA03F31A4001217B6801FAE5
:100BC00003F39A4206D0074A01217B6801FA03F336
:100BD000C2F80031002318460C37BD465DF8047B8F
:100BE000704700BF00060E4080B487B000AFF860C9
:100BF000B9607A603B6000237B61BB68002B24D026
:100C0000FB685B6803F00103012B09D17B680C2BA7
:100C100006D97B680C3B7B607B6943F480037B6176
:100C20007B682E4AA2FB0323DB08180579682B4B4F
:100C3000A3FB0123DA0813469B0013445B00CA1A86
:100C4000130403437A6913437B613B68002B14D080
:100C50003B6A224AA2FB0323DB081803396A1F4BB5
:100C6000A3FB0123DA0813469B0013445B00CA1A56
:100C7000130203437A6913437B617B6A002B14D010
:100C8000BB6A164AA2FB0323DB081801B96A134B9F
:100C9000A3FB0123DA0813469B0013445B00CA1A26
:100CA00040EA02037A6913437B61FB681A690C4BC3
:100CB0001340FA681361FB687A691A61FB681A6964
:100CC000084B1343FA681361FB68DB6A03F0040303
:100CD00018461C37BD465DF8047B7047CDCCCCCCA4
:100CE0007F7F7FFF8080800080B483B000AF78601A
:100CF0007B689B6918460C37BD465DF8047B7047DE
:100D000080B483B000AF786039607B683A68DA619C
:100D100000BF0C37BD465DF8047B704780B483B0DC
:100D200000AF786039607A683B689B011344052204
:100D30001A6000BF0C37BD465DF8047B704780B475
:100D400083B000AF786039607A683B689B011344D8
:100D500002221A6000BF0C37BD465DF8047B704765
:100D600080B485B000AF786039607A683B689B01D9
:100D70001344FB60FB681B6A18461437BD465DF8D8
:100D8000047B704780B483B000AF78600B46FB7083
:100D90007B685B6903F00203002B01D1012303E0B0
:100DA000FA787B68DA61002318460C37BD465DF897
:100DB000047B704780B483B000AF786039607B6893
:100DC0005B6903F00103002B01D1012305E07B687F
:100DD0009B69DAB23B681A70002318460C37BD468F
:100DE0005DF8047B704780B489B000AFF860B960EB
:100DF0007A60BB681A017B689A4202D81023FB61B3
:100E000001E00823FB617B68DA00FB69B96801FB3C
:100E100003F35B081A44FB69B96801FB03F3B2FBF7
:100E2000F3F3BB61BB69DB087B61BB6903F00703BC
:100E30003B617B69002B03D07B69B3F5803F01D315
:100E400001230FE0FB69082B05D1FB685B6843F4C5
:100E50000022FB685A603B691A047B691A43FB68ED
:100E60001A62002318462437BD465DF8047B70479C
:100E700080B582B000AF786078680D4B98477B688A
:100E800000225A607B6800225A627B6800229A62C4
:100E90007868084B98477868074B98477868074BFD
:100EA00098477868064B984700BF0837BD4680BD15
:100EB00051104000630F4000970F4000B10F4000F9
:100EC000CD0F400080B584B000AFF860B9607A60A3
:100ED000F8681A4B98471A4B00221A60BB68002B1F
:100EE00009D0BB681B687A681946F868154B9847A3
:100EF0000346002B01D001231BE0BB685A68BB6886
:100F00009B681A43BB681B691A43BB68DB681A43BA
:100F10000B4B1B6813430A4A1360094B1B68084AB2
:100F20001360FB685A68064B1B681A43FB685A60DB
:100F3000002318461037BD4680BD00BF710E40002B
:100F4000D8084020E70D400080B483B000AF78603F
:100F50007B6840221A6000BF0C37BD465DF8047BF9
:100F6000704780B483B000AF78607B6888221A60D5
:100F700000BF0C37BD465DF8047B704780B483B07A
:100F800000AF78607B6810221A6000BF0C37BD4646
:100F90005DF8047B704780B483B000AF78607B68F5
:100FA00024221A6000BF0C37BD465DF8047B7047F1
:100FB00080B483B000AF78607B684FF480721A60B1
:100FC00000BF0C37BD465DF8047B704780B483B02A
:100FD00000AF78607B684FF400221A6000BF0C37C6
:100FE000BD465DF8047B704780B483B000AF786085
:100FF00039607B685B6903F00203002B01D1012398
:1010000005E03B68C3F308027B68DA6100231846F9
:101010000C37BD465DF8047B704780B483B000AFE9
:10102000786039607B685B6903F00103002B01D1B4
:10103000012306E07B689B69C3F308023B681A60E2
:10104000002318460C37BD465DF8047B704700004E
:1010500080B483B000AF78607B68044AC3F8E420B2
:1010600000BF0C37BD465DF8047B70470041535507
:1010700080B483B000AFEFF310837B607B68002BFC
:101080000CBF01230023DBB23B6072B6BFF35F8F5E
:10109000044B00221A703B6818460C37BD465DF8B9
:1010A000047B70470000402080B483B000AF7860BC
:1010B0007B68002B14BF01230023DBB218460C37DA
:1010C000BD465DF8047B704780B582B000AF7860A4
:1010D0007868074B98470346002B05D0054B012243
:1010E0001A70BFF35F8F62B600BF0837BD4680BD80
:1010F000A91040000000402080B584B000AF1E4B16
:10110000FB601E4BBB60FA68BB689A420CD007E0DC
:10111000BB681A1DBA60FA68111DF96012681A607E
:10112000BB68174A9342F3D3164BBB6004E0BB681D
:101130001A1DBA6000221A60BB68134A9342F6D3A4
:10114000124BFB60124AFB6823F07F039360114B44
:1011500098477860104A104B1B6843F47003136083
:10116000BFF34F8FBFF36F8F78680C4B98470C4BD2
:1011700098470C4B9847FEE7E823400000004020CA
:101180004C0840204C0840205809402000004000F6
:1011900000ED00E07110400088ED00E0C910400053
:1011A000391A4000C919400080B400AFFEE70000C2
:1011B00080B400AF524B1B6B03F00303012B14D020
:1011C000012B02D3022B38D07AE04E4B5B6903F03F
:1011D0008003002B04D04C4B4FF400421A606FE0A8
:1011E000494B4FF4FA421A606AE0454B1B6A03F020
:1011F0008073002B03D0444B444A1A6060E0424B9A
:10120000434A1A603E4B1B6A03F07003102B04D054
:10121000202B08D0002B0ED00EE03B4B1B685B0050
:10122000394A136008E0384B1A6813465B001344D0
:10123000354A136000E000BF42E0314B1B6A03F007
:101240008073002B03D0304B304A1A601CE02E4BC9
:101250002F4A1A602A4B1B6A03F07003102B04D02C
:10126000202B08D0002B0ED00EE0274B1B685B0014
:10127000254A136008E0244B1A6813465B001344A8
:10128000214A136000E000BF1D4B1B6B03F00303FA
:10129000022B14D11A4B9B6A1B0CC3F30A030133B4
:1012A000194A126802FB03F3174A1360144B9B6A36
:1012B000DBB2154A1268B2FBF3F3134A136000BFA6
:1012C0000F4B1B6B03F07003702B08D10E4B1B6888
:1012D000104AA2FB03235B080B4A13600AE0084B89
:1012E0001B6B1B0903F00703074A126822FA03F37A
:1012F000054A136000BFBD465DF8047B704700BF20
:1013000000060E4010180E4004004020001BB700DD
:1013100000093D00ABAAAAAA80B483B000AF7860F0
:101320007B68194A934204D8184B4FF080621A60C8
:1013300023E07B68164A934203D8144B154A1A607F
:101340001BE07B68144A934203D8104B134A1A607F
:1013500013E07B68124A934203D80C4B114A1A607F
:101360000BE07B68104A934204D8084B4FF00422EC
:101370001A6002E0054B0D4A1A6000BF0C37BD46EB
:101380005DF8047B704700BFFF2C3101000C0E405C
:10139000FF59620200010004FF869303000200046B
:1013A000FFB3C40400030004FFE0F50500050004DA
:1013B00080B485B000AF7860104BFB60104B1B68A9
:1013C000002B02D10E4B0F4A1A600D4B1B68BB60FD
:1013D000BA687B681A44FB689A4202DD4FF0FF331B
:1013E00006E0074B1A687B681344054A1360BB6824
:1013F00018461437BD465DF8047B7047FCFF452056
:10140000DC084020582B402080B483B000AF7860C7
:101410007B68072B25D801A252F823F03D14400029
:1014200043144000491440004F144000531440003E
:10143000571440005B1440005F1440004FF4FA431F
:1014400010E04FF400430DE04FF400430AE0084B76
:1014500008E0084B06E0084B04E0074B02E0064BAF
:1014600000E0002318460C37BD465DF8047B70474A
:1014700000093D0000127A00001BB70080B500AFE4
:101480000620054B9847024613469B0013449A00DA
:101490001344184680BD00BF0914400080B500AF5A
:1014A000024B98470346DB09184680BD7D14400077
:1014B00080B582B000AF78607868034B984700BF72
:1014C0000837BD4680BD00BF650B400080B582B0C7
:1014D00000AF78600B46FB707B68364A93420AD1B6
:1014E00000BFFB7819467868334B98470346002BBA
:1014F000F7D101235AE07B68304A93420AD100BFFA
:10150000FB78194678682C4B98470346002BF7D197
:1015100001234BE07B682A4A93420AD100BFFB7843
:1015200019467868244B98470346002BF7D10123CE
:101530003CE07B68234A93420AD100BFFB781946FE
:1015400078681D4B98470346002BF7D101232DE007
:101550007B681D4A93420AD100BFFB781946786820
:101560001A4B98470346002BF7D101231EE07B68F6
:10157000174A93420AD100BFFB7819467868134B8B
:1015800098470346002BF7D101230FE07B68114AEF
:1015900093420AD100BFFB78194678680B4B9847F5
:1015A0000346002BF7D1012300E00023184608373B
:1015B000BD4680BD00080E40850D4000000A0E406B
:1015C000001A0E40001C0E4000400240E90F40008F
:1015D0000080024000C0024080B584B000AF786057
:1015E00039600023FB607B68344A934207D100BF17
:1015F00039687868324B98470346002BF8D17B68EE
:10160000304A934207D100BF396878682C4B98471D
:101610000346002BF8D17B682B4A934207D100BFC9
:1016200039687868264B98470346002BF8D17B68C9
:10163000264A934207D100BF39687868204B984703
:101640000346002BF8D17B68214A93420DD100BF9D
:1016500007F10C03194678681E4B98470346002B88
:10166000F6D1FB68DAB23B681A707B681A4A93427B
:101670000DD100BF07F10C0319467868154B984748
:101680000346002BF6D1FB68DAB23B681A707B6820
:10169000124A93420DD100BF07F10C031946786836
:1016A0000C4B98470346002BF6D1FB68DAB23B6837
:1016B0001A7000BF1037BD4680BD00BF00080E4045
:1016C000B50D4000000A0E40001A0E40001C0E40EE
:1016D000004002401B1040000080024000C0024059
:1016E00080B582B000AF00211148124B98470346E5
:1016F0007B607B68104B1B78DBB2002B09D04FF06E
:1017000000410E480E4B98470E4B1B6801330D4AA3
:1017100013600C4B1B680A2B06D10A4B00221A607F
:1017200000210348084B984700BF0837BD4680BDDD
:1017300000C00040610D40000800402000120E4033
:1017400055194000E00840203F0D400080B586B0AC
:1017500000AF0B20224B98470A20214B98471022BC
:101760004FF000511F48204B98474FF400124FF0A4
:1017700000611E481C4B98471D4A1D4BD3F814317D
:1017800043F01003C2F814313B4600221A605A603D
:101790009A60DA601A615A614FF4E1333B60C0230A
:1017A0007B604FF40063BB600E200D4B9847114BDC
:1017B000984702463B4619460F48104B98470E483B
:1017C0000F4B98470C480F4B98470F4B0F4A1A6026
:1017D0000F4B104A1A6000BF1837BD4680BD00BFCE
:1017E000B114400000100E408D054000000E0E4068
:1017F000008008409D14400000800240C50E40005B
:10180000490F40007D0F40001C094020CD144000CE
:1018100018094020D915400090B585B004AF294B78
:101820001B680333274A1360264B1B683B2B1ED9CA
:10183000254B1B680133244A1360234B1968234B43
:10184000A3FB01235A0913461B019B1A9B00CA1ACA
:101850001D4B1A601B4B19681C4BA3FB01235A0933
:1018600013461B019B1A9B00CA1A164B1A60164B93
:101870001B683B2B11D9144B1968144BA3FB012394
:101880005A0913461B019B1A9B00CA1A0E4B1A6079
:101890000F4B1B6801330E4A13600D4B19680A4B3E
:1018A0001B68084A126802920122019200930123E8
:1018B0000A4601210748084CA04700BF0437BD462F
:1018C00090BD00BF240940202809402089888888CD
:1018D0002C09402060180E40E90B400080B582B012
:1018E00000AF1548154B984778607B6803F00203FA
:1018F000002B0CD002211048114B9847114B9847F0
:10190000114B01221A7000211048114B98470121F8
:1019100009480B4B984708210748094B9847102165
:101920000548074B984720210348054B984700BFBF
:101930000837BD4680BD00BF60180E40E90C40006E
:10194000010D4000191840000800402000C0004070
:101950001D0D400080B582B000AF786039603968F5
:101960007868094B98470346002B04D0396878689B
:10197000064B984703E039687868054B984700BFE5
:101980000837BD4680BD00BF01074000710540001B
:101990005505400090B585B002AF78600C20074B2C
:1019A00098477A680023009300234FF000410448D1
:1019B000044CA04700BF0C37BD4690BD650B4000EE
:1019C00000120E409D06400080B5ADF5487D00AF89
:1019D000104B9847104B4FF400425A6000200F4BB9
:1019E00098470F4B98473B4619460E480E4B984771
:1019F0003B461B68312BF6D14FF000410B480C4B96
:101A000098473B461B68DBB219460648094B984786
:101A1000E9E700BFAD04400050180E4095194000A2
:101A20004D17400000800240D915400000120E40C2
:101A300055194000CD14400070B50F4E0F4D761B68
:101A4000B61018BF002405D0013455F8043B984760
:101A5000A642F9D10A4E0B4D761B00F0B3FCB6102E
:101A600018BF002406D0013455F8043B9847A6421D
:101A7000F9D170BD70BD00BFD0234000D02340001D
:101A8000D8234000D0234000024B13B1024800F09D
:101A900005B8704700000000A91A40000023014665
:101AA0001A46184600F02ABC38B50A4C0A4D641B89
:101AB000A4100AD004F18043013B05EB8305013CEF
:101AC00055F804399847002CF9D1BDE8384000F0AA
:101AD00083BC00BFE8234000E4234000F8B5244F56
:101AE0000C46064600F0ECFBBB685D68C4F57E6101
:101AF0000F3125F00305294421F47F6121F00F0106
:101B0000A1F58054B4F5805F07DB0021304600F07A
:101B1000E3FBBB682B44984204D0304600F0D6FB70
:101B20000020F8BD6142304600F0D6FB01300DD0F8
:101B3000104BBA6819682D1B45F001053046091B8A
:101B40005560196000F0C2FB0120F8BD002130464D
:101B500000F0C2FBBA68831A0F2BDEDD064C054984
:101B6000246843F00103001B53600860D5E700BF01
:101B70003C044020E408402044084020002944D090
:101B80002DE9F0410D46804600F09AFB55F8047CA3
:101B9000694927F00103A5F10804E2188E6850682E
:101BA000B24220F003005ED0FE0750600BD455F81F
:101BB000087CE41B01F1080EA56875453B446DD017
:101BC000E768EF60BD6015186D68ED073ED543F01E
:101BD00001026260E350B3F5007F17D2DB08581CA6
:101BE0009A104D6851F83070A7600123934001EBC3
:101BF000C0022B43083AE2604B6041F83040FC6081
:101C00004046BDE8F04100F061BB70475A0A042A23
:101C100052D89A0902F13907FF0002F13805C819B4
:101C2000CA59083890424FD0516821F003018B42C5
:101C300032D292689042F7D1C368A060E3609C60A2
:101C4000C4604046BDE8F04100F040BB95683B4FA2
:101C5000BD42034440D0D068E86043F00102856093
:101C60006260E350B7E7FF07034407D455F8082C38
:101C7000A41A1344A068E268C2609060304A1268F7
:101C800043F00100934260608C60B9D32D4B404615
:101C90001968FFF723FFB3E71046CDE7111849682D
:101CA000C90744D49168D268CA60034443F0010074
:101CB00091606060E350A3E7142A16D802F15C0734
:101CC000FF0002F15B05AAE7AA1001234D689340CB
:101CD0002B434B600346B0E743F001024C610C61BB
:101CE000E560A5606260E3508AE7542A06D81A0BC3
:101CF00002F16F07FF0002F16E0590E7B2F5AA7FCF
:101D000006D8DA0B02F17807FF0002F1770586E7C3
:101D100040F25450824206D89A0C02F17D07FF002F
:101D200002F17C057BE74FF47E777E2577E743F071
:101D300001016160136063E73C04402044044020DB
:101D40004808402014094020704700BF704700BF7A
:101D5000024B0146186800F003B800BF0C00402099
:101D60002DE9F04F01F10B06162E83B0054640F227
:101D70009E8036F0070600F1BD80B14200F2BA80C5
:101D800000F09EFAB6F5FC7FC0F09382730A00F073
:101D9000B880042B00F27981B30903F1390003F113
:101DA000380EC300BF4F3B44A3F108015C68A14259
:101DB00006D10CE0002A80F2AA80E468A14206D095
:101DC000636823F003039A1B0F2AF3DD70463C6916
:101DD000DFF8E4E2744500F0AB81636823F00303AD
:101DE0009A1B0F2A00F39081002AC7F814E0C7F865
:101DF00010E080F29D80B3F5007F80F06181DB0808
:101E000003F1010C99107A6857F83C80C4F80880F7
:101E100001238B4007EBCC0113430839E1607B6061
:101E200047F83C40C8F80C408210012494409C4282
:101E300000F28B801C4206D120F0030064001C429B
:101E400000F10400FAD007EBC009CC468046DCF86C
:101E50000C309C4507D16DE1002A80F27B81DB6864
:101E60009C4500F06781596821F003018A1B0F2A05
:101E7000F2DDD3F80CC0D3F8088000939C192846F3
:101E800046F0010642F001055E60C8F80CC0CCF8CF
:101E900008807C613C61C4F80CE0C4F808E065602F
:101EA0005A5000F013FA009B03F108041EE01029B9
:101EB00020D800F005FA102618230220794F3B4461
:101EC000A3F108025C68944200F03D816368E16818
:101ED000A66823F00303234428465A68F16042F0C1
:101EE00001028E605A6000F0F1F90834204603B018
:101EF000BDE8F08F00240C2320462B6003B0BDE822
:101F0000F08F40204FF400734FF03F0E4AE7234418
:101F1000E1685A68A66842F00102F16028468E60C6
:101F20005A6000F0D3F90834204603B0BDE8F08FC2
:101F3000234428465A6842F001025A6000F0C6F96C
:101F40000834204603B0BDE8F08FBC68636823F016
:101F50000308B04504D3A8EB06030F2B00F38580DC
:101F6000DFF85891504BD9F800201B6801323344F8
:101F700004EB080A00F0558103F580530F3323F476
:101F80007F6B2BF00F0B5946284600F0A5F9411C3A
:101F9000024600F0FC80824500F2F780434B19684E
:101FA0005944196000F04D81D9F8000001301BBF81
:101FB000A2EB0A0A5144C9F80020196012F0070187
:101FC00000F01581C1F10800C1F5805102440831CB
:101FD00002EB0B09C9F30B09A1EB09094946284695
:101FE0000193009200F078F9431C9DE80C0000F08A
:101FF0004381801A484440F001001968BA6049449E
:10200000BC425060196017D0B8F10F0F40F2FB804E
:102010006068A8F10C0222F0070204EB020E00F047
:1020200001004FF0050C10430F2A6060CEF804C089
:10203000CEF808C000F217811D4BBC681A689142A7
:1020400088BF19601B4B1A689142626888BF19608B
:1020500022F003029642A2EB060301D80F2B04DC08
:10206000284600F033F9002440E7A21943F00103A9
:1020700046F0010666602846BA60536000F026F913
:102080000834204603B0BDE8F08F142B71D9542BCF
:1020900000F2A380330B03F16F0003F16E0EC30057
:1020A00080E600BF3C04402014094020E4084020A2
:1020B0000C094020100940204404402044084020DE
:1020C0005A0A042A5BD9142A00F2AE8002F15C019C
:1020D000C9005B3207EB010C7958ACF1080C8C4558
:1020E00000F088804A6822F00302934273D2896824
:1020F0008C45F7D1DCF80C207B68E260C4F808C09E
:102100009460CCF80C408FE6A11946F0010C42F027
:102110000106C4F804C0284679613961C1F80CE0B1
:10212000C1F808E04E60E25000F0D0F80834DDE677
:102130007B6879E608F1010818F0030F0CF1080C30
:102140007FF485AE2DE0DC68A34208BF02303FF487
:102150003EAEBBE619441C464A68DB6854F8086F7B
:1021600042F001024A602846F3609E6000F0AEF83B
:10217000BCE603F15C0003F15B0EC30012E69A09B2
:1021800002F13901C9003832A4E7BC4254D0BC681E
:10219000626822F003025DE759F80839994540F07A
:1021A000868010F0030F00F1FF30F5D17B6823EA41
:1021B00004037B6064009C423FF6C7AE002C3FF4F2
:1021C000C4AE1C4240467FF43EAE64001C4200F1A7
:1021D0000400FAD037E68C468CE7B3F5AA7F15D811
:1021E000F30B03F1780003F1770EC300DAE54FF447
:1021F0008051EDE67B689210012101FA02F213434F
:102200007B60624679E70123536029E740F254522C
:10221000934222D8B30C03F17D0003F17C0EC3007E
:10222000C0E503F1100BAEE6542A29D81A0B02F1CF
:102230006F01C9006E324DE7204B1968594419608F
:10224000B2E6CAF30B0000287FF4AEAE08EB0B0336
:10225000BA6843F001035360EEE67F204FF47E73CB
:102260004FF07E0E9EE504F1080128460093FFF72B
:1022700085FC009B1968DFE601204FF00009BCE6F1
:10228000B2F5AA7F05D8DA0B02F17801C9007732DE
:1022900020E740F254518A4205D89A0C02F17D01A0
:1022A000C9007C3216E74FF47E717E2212E77B680C
:1022B00080E7F00806F1080300E600BFE4084020CC
:1022C0000148FFF741BD00BF400940200148FFF72A
:1022D0003DBD00BF4009402038B5074C00230546EE
:1022E00008462360FFF764F8431C00D038BD23681C
:1022F000002BFBD02B6038BD540940202DE9F8435A
:102300002C4D0646286898460F469146FFF71CFD5F
:10231000294B1C68D4F84831002B3ED05A681F2A3C
:102320001CDC02F1010E76B103EB82010124C1F83D
:102330008890D3F8880194402043022EC3F8880186
:10234000C1F8088123D00232C3F804E0286843F8BA
:102350002270FFF7FBFC0020BDE8F883174B0BB39E
:102360004FF4C870FFF7F4FC0346D8B1D4F8482105
:102370000260002141600A46C4F848014FF0010E96
:10238000C0F88811C0F88C11002EDCD0CCE7D3F84F
:102390008C110C43C3F88C41D5E704F5A673C4F83F
:1023A0004831BBE72868FFF7D1FC4FF0FF30BDE8AC
:1023B000F88300BF38044020C0234000511D400076
:1023C00010004020F8B500BFF8BC08BC9E4670471E
:1023D000891A400065014000F8B500BFF8BC08BC90
:0823E0009E46704741014000D8
:1023E8000100000000093D0001000000100040202D
:1023F80000000000FC02402064034020CC03402081
:1024080000000000000000000000000000000000C4
:1024180000000000000000000000000000000000B4
:1024280000000000000000000000000000000000A4
:102438000000000000000000000000000000000094
:102448000000000000000000000000000000000084
:102458000000000000000000000000000000000074
:102468000000000000000000000000000000000064
:102478000000000000000000000000000000000054
:102488000000000000000000000000000000000044
:102498000000000000000000010000000000000033
:1024A8000E33CDAB34126DE6ECDE05000B000000F8
:1024B8000000000000000000000000000000000014
:1024C8000000000000000000000000000000000004
:1024D80000000000000000000000000000000000F4
:1024E80000000000000000000000000000000000E4
:102818000000000000000000300940200000000017
:10282800000000003C0440203C04402044044020B8
:10283800440440204C0440204C04402054044020D0
:10284800540440205C0440205C0440206404402080
:10285800640440206C0440206C0440207404402030
:10286800740440207C0440207C04402084044020E0
:10287800840440208C0440208C0440209404402090
:10288800940440209C0440209C044020A404402040
:10289800A4044020AC044020AC044020B4044020F0
:1028A800B4044020BC044020BC044020C4044020A0
:1028B800C4044020CC044020CC044020D404402050
:1028C800D4044020DC044020DC044020E404402000
:1028D800E4044020EC044020EC044020F4044020B0
:1028E800F4044020FC044020FC044020040540205F
:1028F800040540200C0540200C054020140540200C
:10290800140540201C0540201C05402024054020BB
:10291800240540202C0540202C054020340540206B
:10292800340540203C0540203C054020440540201B
:10293800440540204C0540204C05402054054020CB
:10294800540540205C0540205C054020640540207B
:10295800640540206C0540206C054020740540202B
:10296800740540207C0540207C05402084054020DB
:10297800840540208C0540208C054020940540208B
:10298800940540209C0540209C054020A40540203B
:10299800A4054020AC054020AC054020B4054020EB
:1029A800B4054020BC054020BC054020C40540209B
:1029B800C4054020CC054020CC054020D40540204B
:1029C800D4054020DC054020DC054020E4054020FB
:1029D800E4054020EC054020EC054020F4054020AB
:1029E800F4054020FC054020FC054020040640205A
:1029F800040640200C0640200C0640201406402007
:102A0800140640201C0640201C06402024064020B6
:102A1800240640202C0640202C0640203406402066
:102A2800340640203C0640203C0640204406402016
:102A3800440640204C0640204C06402054064020C6
:102A4800540640205C0640205C0640206406402076
:102A5800640640206C0640206C0640207406402026
:102A6800740640207C0640207C06402084064020D6
:102A7800840640208C0640208C0640209406402086
:102A8800940640209C0640209C064020A406402036
:102A9800A4064020AC064020AC064020B4064020E6
:102AA800B4064020BC064020BC064020C406402096
:102AB800C4064020CC064020CC064020D406402046
:102AC800D4064020DC064020DC064020E4064020F6
:102AD800E4064020EC064020EC064020F4064020A6
:102AE800F4064020FC064020FC0640200407402055
:102AF800040740200C0740200C0740201407402002
:102B0800140740201C0740201C07402024074020B1
:102B1800240740202C0740202C0740203407402061
:102B2800340740203C0740203C0740204407402011
:102B3800440740204C0740204C07402054074020C1
:102B4800540740205C0740205C0740206407402071
:102B5800640740206C0740206C0740207407402021
:102B6800740740207C0740207C07402084074020D1
:102B7800840740208C0740208C0740209407402081
:102B8800940740209C0740209C074020A407402031
:102B9800A4074020AC074020AC074020B4074020E1
:102BA800B4074020BC074020BC074020C407402091
:102BB800C4074020CC074020CC074020D407402041
:102BC800D4074020DC074020DC074020E4074020F1
:102BD800E4074020EC074020EC074020F4074020A1
:102BE800F4074020FC074020FC0740200408402050
:102BF800040840200C0840200C08402014084020FD
:102C0800140840201C0840201C08402024084020AC
:102C1800240840202C0840202C084020340840205C
:0C2C280034084020FFFFFFFF0000020006
:04000005004010F9AE
:00000001FF
